{"abi":[{"type":"constructor","inputs":[{"name":"_intermediaryWallet","type":"address","internalType":"address"},{"name":"initialOwner","type":"address","internalType":"address"},{"name":"_platformCommissionPercentage","type":"uint256","internalType":"uint256"}],"stateMutability":"nonpayable"},{"type":"function","name":"TOTAL_FRACTIONS","inputs":[],"outputs":[{"name":"","type":"uint256","internalType":"uint256"}],"stateMutability":"view"},{"type":"function","name":"approve","inputs":[{"name":"to","type":"address","internalType":"address"},{"name":"tokenId","type":"uint256","internalType":"uint256"}],"outputs":[],"stateMutability":"nonpayable"},{"type":"function","name":"balanceOf","inputs":[{"name":"owner","type":"address","internalType":"address"}],"outputs":[{"name":"","type":"uint256","internalType":"uint256"}],"stateMutability":"view"},{"type":"function","name":"claimOriginal","inputs":[{"name":"fractionIds","type":"uint256[]","internalType":"uint256[]"}],"outputs":[],"stateMutability":"nonpayable"},{"type":"function","name":"fractions","inputs":[{"name":"","type":"uint256","internalType":"uint256"}],"outputs":[{"name":"price","type":"uint256","internalType":"uint256"},{"name":"owner","type":"address","internalType":"address"}],"stateMutability":"view"},{"type":"function","name":"fractionsMinted","inputs":[{"name":"","type":"uint256","internalType":"uint256"}],"outputs":[{"name":"","type":"bool","internalType":"bool"}],"stateMutability":"view"},{"type":"function","name":"getApproved","inputs":[{"name":"tokenId","type":"uint256","internalType":"uint256"}],"outputs":[{"name":"","type":"address","internalType":"address"}],"stateMutability":"view"},{"type":"function","name":"intermediaryWallet","inputs":[],"outputs":[{"name":"","type":"address","internalType":"address"}],"stateMutability":"view"},{"type":"function","name":"isApprovedForAll","inputs":[{"name":"owner","type":"address","internalType":"address"},{"name":"operator","type":"address","internalType":"address"}],"outputs":[{"name":"","type":"bool","internalType":"bool"}],"stateMutability":"view"},{"type":"function","name":"mintFractions","inputs":[{"name":"originalId","type":"uint256","internalType":"uint256"},{"name":"fractionTokenURIs","type":"string[]","internalType":"string[]"},{"name":"totalPrice","type":"uint256","internalType":"uint256"}],"outputs":[{"name":"","type":"uint256[]","internalType":"uint256[]"}],"stateMutability":"nonpayable"},{"type":"function","name":"mintOriginal","inputs":[{"name":"originalTokenURI","type":"string","internalType":"string"},{"name":"artist","type":"address","internalType":"address"},{"name":"artistCommissionPercentage","type":"uint256","internalType":"uint256"}],"outputs":[{"name":"","type":"uint256","internalType":"uint256"}],"stateMutability":"nonpayable"},{"type":"function","name":"name","inputs":[],"outputs":[{"name":"","type":"string","internalType":"string"}],"stateMutability":"view"},{"type":"function","name":"originalToArtist","inputs":[{"name":"","type":"uint256","internalType":"uint256"}],"outputs":[{"name":"artist","type":"address","internalType":"address"},{"name":"commissionPercentage","type":"uint256","internalType":"uint256"}],"stateMutability":"view"},{"type":"function","name":"originalToFractions","inputs":[{"name":"","type":"uint256","internalType":"uint256"}],"outputs":[{"name":"","type":"uint256","internalType":"uint256"}],"stateMutability":"view"},{"type":"function","name":"owner","inputs":[],"outputs":[{"name":"","type":"address","internalType":"address"}],"stateMutability":"view"},{"type":"function","name":"ownerOf","inputs":[{"name":"tokenId","type":"uint256","internalType":"uint256"}],"outputs":[{"name":"","type":"address","internalType":"address"}],"stateMutability":"view"},{"type":"function","name":"platformCommissionPercentage","inputs":[],"outputs":[{"name":"","type":"uint256","internalType":"uint256"}],"stateMutability":"view"},{"type":"function","name":"renounceOwnership","inputs":[],"outputs":[],"stateMutability":"nonpayable"},{"type":"function","name":"safeTransferFrom","inputs":[{"name":"from","type":"address","internalType":"address"},{"name":"to","type":"address","internalType":"address"},{"name":"tokenId","type":"uint256","internalType":"uint256"}],"outputs":[],"stateMutability":"nonpayable"},{"type":"function","name":"safeTransferFrom","inputs":[{"name":"from","type":"address","internalType":"address"},{"name":"to","type":"address","internalType":"address"},{"name":"tokenId","type":"uint256","internalType":"uint256"},{"name":"data","type":"bytes","internalType":"bytes"}],"outputs":[],"stateMutability":"nonpayable"},{"type":"function","name":"setApprovalForAll","inputs":[{"name":"operator","type":"address","internalType":"address"},{"name":"approved","type":"bool","internalType":"bool"}],"outputs":[],"stateMutability":"nonpayable"},{"type":"function","name":"setPlatformCommissionPercentage","inputs":[{"name":"_newPercentage","type":"uint256","internalType":"uint256"}],"outputs":[],"stateMutability":"nonpayable"},{"type":"function","name":"supportsInterface","inputs":[{"name":"interfaceId","type":"bytes4","internalType":"bytes4"}],"outputs":[{"name":"","type":"bool","internalType":"bool"}],"stateMutability":"view"},{"type":"function","name":"symbol","inputs":[],"outputs":[{"name":"","type":"string","internalType":"string"}],"stateMutability":"view"},{"type":"function","name":"tokenCounter","inputs":[],"outputs":[{"name":"","type":"uint256","internalType":"uint256"}],"stateMutability":"view"},{"type":"function","name":"tokenURI","inputs":[{"name":"tokenId","type":"uint256","internalType":"uint256"}],"outputs":[{"name":"","type":"string","internalType":"string"}],"stateMutability":"view"},{"type":"function","name":"transferFraction","inputs":[{"name":"fractionId","type":"uint256","internalType":"uint256"},{"name":"buyer","type":"address","internalType":"address"}],"outputs":[],"stateMutability":"payable"},{"type":"function","name":"transferFrom","inputs":[{"name":"from","type":"address","internalType":"address"},{"name":"to","type":"address","internalType":"address"},{"name":"tokenId","type":"uint256","internalType":"uint256"}],"outputs":[],"stateMutability":"nonpayable"},{"type":"function","name":"transferOwnership","inputs":[{"name":"newOwner","type":"address","internalType":"address"}],"outputs":[],"stateMutability":"nonpayable"},{"type":"event","name":"Approval","inputs":[{"name":"owner","type":"address","indexed":true,"internalType":"address"},{"name":"approved","type":"address","indexed":true,"internalType":"address"},{"name":"tokenId","type":"uint256","indexed":true,"internalType":"uint256"}],"anonymous":false},{"type":"event","name":"ApprovalForAll","inputs":[{"name":"owner","type":"address","indexed":true,"internalType":"address"},{"name":"operator","type":"address","indexed":true,"internalType":"address"},{"name":"approved","type":"bool","indexed":false,"internalType":"bool"}],"anonymous":false},{"type":"event","name":"BatchMetadataUpdate","inputs":[{"name":"_fromTokenId","type":"uint256","indexed":false,"internalType":"uint256"},{"name":"_toTokenId","type":"uint256","indexed":false,"internalType":"uint256"}],"anonymous":false},{"type":"event","name":"CommissionPercentageChanged","inputs":[{"name":"newPercentage","type":"uint256","indexed":false,"internalType":"uint256"}],"anonymous":false},{"type":"event","name":"DebugLog","inputs":[{"name":"message","type":"string","indexed":false,"internalType":"string"},{"name":"value","type":"uint256","indexed":false,"internalType":"uint256"}],"anonymous":false},{"type":"event","name":"FractionMinted","inputs":[{"name":"tokenId","type":"uint256","indexed":true,"internalType":"uint256"},{"name":"originalId","type":"uint256","indexed":true,"internalType":"uint256"},{"name":"tokenURI","type":"string","indexed":false,"internalType":"string"},{"name":"price","type":"uint256","indexed":false,"internalType":"uint256"}],"anonymous":false},{"type":"event","name":"FundsDistributed","inputs":[{"name":"tokenId","type":"uint256","indexed":true,"internalType":"uint256"},{"name":"amount","type":"uint256","indexed":false,"internalType":"uint256"},{"name":"artist","type":"address","indexed":true,"internalType":"address"},{"name":"artistCommission","type":"uint256","indexed":false,"internalType":"uint256"},{"name":"platformCommission","type":"uint256","indexed":false,"internalType":"uint256"}],"anonymous":false},{"type":"event","name":"MetadataUpdate","inputs":[{"name":"_tokenId","type":"uint256","indexed":false,"internalType":"uint256"}],"anonymous":false},{"type":"event","name":"OriginalClaimed","inputs":[{"name":"originalId","type":"uint256","indexed":true,"internalType":"uint256"},{"name":"claimer","type":"address","indexed":true,"internalType":"address"}],"anonymous":false},{"type":"event","name":"OriginalMinted","inputs":[{"name":"tokenId","type":"uint256","indexed":true,"internalType":"uint256"},{"name":"tokenURI","type":"string","indexed":false,"internalType":"string"}],"anonymous":false},{"type":"event","name":"OwnershipTransferred","inputs":[{"name":"previousOwner","type":"address","indexed":true,"internalType":"address"},{"name":"newOwner","type":"address","indexed":true,"internalType":"address"}],"anonymous":false},{"type":"event","name":"Transfer","inputs":[{"name":"from","type":"address","indexed":true,"internalType":"address"},{"name":"to","type":"address","indexed":true,"internalType":"address"},{"name":"tokenId","type":"uint256","indexed":true,"internalType":"uint256"}],"anonymous":false},{"type":"error","name":"ERC721IncorrectOwner","inputs":[{"name":"sender","type":"address","internalType":"address"},{"name":"tokenId","type":"uint256","internalType":"uint256"},{"name":"owner","type":"address","internalType":"address"}]},{"type":"error","name":"ERC721InsufficientApproval","inputs":[{"name":"operator","type":"address","internalType":"address"},{"name":"tokenId","type":"uint256","internalType":"uint256"}]},{"type":"error","name":"ERC721InvalidApprover","inputs":[{"name":"approver","type":"address","internalType":"address"}]},{"type":"error","name":"ERC721InvalidOperator","inputs":[{"name":"operator","type":"address","internalType":"address"}]},{"type":"error","name":"ERC721InvalidOwner","inputs":[{"name":"owner","type":"address","internalType":"address"}]},{"type":"error","name":"ERC721InvalidReceiver","inputs":[{"name":"receiver","type":"address","internalType":"address"}]},{"type":"error","name":"ERC721InvalidSender","inputs":[{"name":"sender","type":"address","internalType":"address"}]},{"type":"error","name":"ERC721NonexistentToken","inputs":[{"name":"tokenId","type":"uint256","internalType":"uint256"}]},{"type":"error","name":"OwnableInvalidOwner","inputs":[{"name":"owner","type":"address","internalType":"address"}]},{"type":"error","name":"OwnableUnauthorizedAccount","inputs":[{"name":"account","type":"address","internalType":"address"}]}],"bytecode":{"object":"0x608060405234801561001057600080fd5b5060405161281538038061281583398101604081905261002f91610165565b816040518060400160405280600a815260200169119c9858dd1b1cd3919560b21b8152506040518060400160405280600581526020016411949050d560da1b81525081600090816100809190610240565b50600161008d8282610240565b5050506001600160a01b0381166100be57604051631e4fbdf760e01b81526000600482015260240160405180910390fd5b6100c7816100f7565b506000600855600980546001600160a01b0319166001600160a01b03949094169390931790925550600a556102fe565b600780546001600160a01b038381166001600160a01b0319831681179093556040519116919082907f8be0079c531659141344cd1fd0a4f28419497f9722a3daafe3b4186f6b6457e090600090a35050565b80516001600160a01b038116811461016057600080fd5b919050565b60008060006060848603121561017a57600080fd5b61018384610149565b925061019160208501610149565b9150604084015190509250925092565b634e487b7160e01b600052604160045260246000fd5b600181811c908216806101cb57607f821691505b6020821081036101eb57634e487b7160e01b600052602260045260246000fd5b50919050565b601f82111561023b57806000526020600020601f840160051c810160208510156102185750805b601f840160051c820191505b818110156102385760008155600101610224565b50505b505050565b81516001600160401b03811115610259576102596101a1565b61026d8161026784546101b7565b846101f1565b6020601f8211600181146102a157600083156102895750848201515b600019600385901b1c1916600184901b178455610238565b600084815260208120601f198516915b828110156102d157878501518255602094850194600190920191016102b1565b50848210156102ef5786840151600019600387901b60f8161c191681555b50505050600190811b01905550565b6125088061030d6000396000f3fe6080604052600436106101c25760003560e01c8063715018a6116100f7578063b88d4fde11610095578063e985e9c511610064578063e985e9c514610578578063f2fde38b14610598578063f8ed48ed146105b8578063fcc3f6b7146105d857600080fd5b8063b88d4fde146104c8578063bdcfa6af146104e8578063c87b56dd14610542578063d082e3811461056257600080fd5b806395d89b41116100d157806395d89b4114610446578063a22cb4651461045b578063a8db60a81461047b578063aa5a75f51461049b57600080fd5b8063715018a6146103fd5780638da5cb5b1461041257806392303e061461043057600080fd5b8063256f4f9b116101645780636221120d1161013e5780636221120d1461034b5780636352211e146103aa578063639956e5146103ca57806370a08231146103dd57600080fd5b8063256f4f9b146102e857806342842e0e1461030b5780634ca8e07c1461032b57600080fd5b8063095ea7b3116101a0578063095ea7b314610256578063192fc2f51461027857806323b872dd146102a857806324b0ce98146102c857600080fd5b806301ffc9a7146101c757806306fdde03146101fc578063081812fc1461021e575b600080fd5b3480156101d357600080fd5b506101e76101e2366004611d24565b610605565b60405190151581526020015b60405180910390f35b34801561020857600080fd5b50610211610630565b6040516101f39190611d91565b34801561022a57600080fd5b5061023e610239366004611da4565b6106c2565b6040516001600160a01b0390911681526020016101f3565b34801561026257600080fd5b50610276610271366004611dd9565b6106eb565b005b34801561028457600080fd5b506101e7610293366004611da4565b600d6020526000908152604090205460ff1681565b3480156102b457600080fd5b506102766102c3366004611e03565b6106fa565b3480156102d457600080fd5b5060095461023e906001600160a01b031681565b3480156102f457600080fd5b506102fd600981565b6040519081526020016101f3565b34801561031757600080fd5b50610276610326366004611e03565b61078a565b34801561033757600080fd5b50610276610346366004611eab565b6107aa565b34801561035757600080fd5b5061038b610366366004611da4565b600b60205260009081526040902080546001909101546001600160a01b039091169082565b604080516001600160a01b0390931683526020830191909152016101f3565b3480156103b657600080fd5b5061023e6103c5366004611da4565b6109e2565b6102766103d8366004611f46565b6109ed565b3480156103e957600080fd5b506102fd6103f8366004611f72565b610b26565b34801561040957600080fd5b50610276610b6e565b34801561041e57600080fd5b506007546001600160a01b031661023e565b34801561043c57600080fd5b506102fd600a5481565b34801561045257600080fd5b50610211610b82565b34801561046757600080fd5b50610276610476366004611f8d565b610b91565b34801561048757600080fd5b506102fd610496366004612045565b610b9c565b3480156104a757600080fd5b506104bb6104b636600461208c565b610cf5565b6040516101f39190612157565b3480156104d457600080fd5b506102766104e336600461219a565b611006565b3480156104f457600080fd5b50610525610503366004611da4565b600e60205260009081526040902080546001909101546001600160a01b031682565b604080519283526001600160a01b039091166020830152016101f3565b34801561054e57600080fd5b5061021161055d366004611da4565b61101d565b34801561056e57600080fd5b506102fd60085481565b34801561058457600080fd5b506101e7610593366004612216565b61112e565b3480156105a457600080fd5b506102766105b3366004611f72565b61115c565b3480156105c457600080fd5b506102766105d3366004611da4565b61119a565b3480156105e457600080fd5b506102fd6105f3366004611da4565b600c6020526000908152604090205481565b60006001600160e01b03198216632483248360e11b148061062a575061062a826111dd565b92915050565b60606000805461063f90612240565b80601f016020809104026020016040519081016040528092919081815260200182805461066b90612240565b80156106b85780601f1061068d576101008083540402835291602001916106b8565b820191906000526020600020905b81548152906001019060200180831161069b57829003601f168201915b5050505050905090565b60006106cd8261122d565b506000828152600460205260409020546001600160a01b031661062a565b6106f6828233611266565b5050565b6001600160a01b03821661072957604051633250574960e11b8152600060048201526024015b60405180910390fd5b6000610736838333611273565b9050836001600160a01b0316816001600160a01b031614610784576040516364283d7b60e01b81526001600160a01b0380861660048301526024820184905282166044820152606401610720565b50505050565b6107a583838360405180602001604052806000815250611006565b505050565b60098151146107fb5760405162461bcd60e51b815260206004820152601b60248201527f4d7573742070726f766964652039206672616374696f6e2049447300000000006044820152606401610720565b6000600c6000836000815181106108145761081461227a565b6020026020010151815260200190815260200160002054905060005b600981101561094f57336001600160a01b03166108658483815181106108585761085861227a565b60200260200101516109e2565b6001600160a01b0316146108bb5760405162461bcd60e51b815260206004820152601c60248201527f596f7520646f206e6f74206f776e20616c6c206672616374696f6e73000000006044820152606401610720565b81600c60008584815181106108d2576108d261227a565b6020026020010151815260200190815260200160002054146109475760405162461bcd60e51b815260206004820152602860248201527f4672616374696f6e7320646f206e6f74206d61746368207468652073616d65206044820152671bdc9a59da5b985b60c21b6064820152608401610720565b600101610830565b50600954610967906001600160a01b0316338361136c565b60005b600981101561099d576109958382815181106109885761098861227a565b602002602001015161141c565b60010161096a565b506000818152600d6020526040808220805460ff1916905551339183917f7c291fc3be2d54799368290c1bb2e9b6db2dcc79a3aeed5124090d393e8090119190a35050565b600061062a8261122d565b6000828152600e6020908152604091829020825180840190935280548084526001909101546001600160a01b0316918301919091523414610a705760405162461bcd60e51b815260206004820152601860248201527f496e636f7272656374207061796d656e7420616d6f756e7400000000000000006044820152606401610720565b60208101516001600160a01b03163314610adb5760405162461bcd60e51b815260206004820152602660248201527f596f7520617265206e6f7420746865206f776e6572206f66207468697320667260448201526530b1ba34b7b760d11b6064820152608401610720565b610aea8160200151838561136c565b610af48334611457565b506000918252600e602052604090912060010180546001600160a01b0319166001600160a01b03909216919091179055565b60006001600160a01b038216610b52576040516322718ad960e21b815260006004820152602401610720565b506001600160a01b031660009081526003602052604090205490565b610b76611634565b610b806000611661565b565b60606001805461063f90612240565b6106f63383836116b3565b6000610ba6611634565b60408051818152601381830152721b5a5b9d13dc9a59da5b985b0818d85b1b1959606a1b60608201526000602082015290516000805160206124b38339815191529181900360800190a1600854600954610c09906001600160a01b031682611752565b610c13818661176c565b6040805180820182526001600160a01b03868116825260208083018781526000868152600b909252938120925183546001600160a01b031916921691909117825591516001909101556008805491610c6a836122a6565b9190505550807f0bfbf9e948218a2259302374d4985b12508d374406fde6b064f25ee1b6c9348c86604051610c9f9190611d91565b60405180910390a260408051818152600f818301526e13dc9a59da5b985b081b5a5b9d1959608a1b60608201526020810183905290516000805160206124b38339815191529181900360800190a1949350505050565b6060610cff611634565b60408051818152601481830152731b5a5b9d119c9858dd1a5bdb9cc818d85b1b195960621b60608201526020810186905290516000805160206124b38339815191529181900360800190a16009835114610d9b5760405162461bcd60e51b815260206004820152601d60248201527f5468657265206d7573742062652039206672616374696f6e20555249730000006044820152606401610720565b6000848152600d602052604090205460ff1615610e0d5760405162461bcd60e51b815260206004820152602a60248201527f4672616374696f6e7320616c7265616479206d696e74656420666f72207468696044820152691cc81bdc9a59da5b985b60b21b6064820152608401610720565b604080516009808252610140820190925260009160208201610120803683370190505090506000610e3f6009856122bf565b905060005b6009811015610f8357600854600954610e66906001600160a01b031682611752565b610e8981888481518110610e7c57610e7c61227a565b602002602001015161176c565b6040805180820182528481526009546001600160a01b0390811660208084019182526000868152600e90915293909320915182559151600190910180546001600160a01b0319169190921617905583518190859084908110610eed57610eed61227a565b60200260200101818152505087600c60008381526020019081526020016000208190555087817f7ca29ece21413c345ca3c676bb9124bb1c8adaecce5fd19bd71f5bfe3f28a4e9898581518110610f4657610f4661227a565b602002602001015186604051610f5d9291906122e1565b60405180910390a360088054906000610f75836122a6565b909155505050600101610e44565b506000868152600d602052604090819020805460ff19166001179055516000805160206124b383398151915290610ff59088906040808252601d908201527f4672616374696f6e73206d696e74656420666f72206f726967696e616c0000006060820152602081019190915260800190565b60405180910390a150949350505050565b6110118484846106fa565b610784848484846117bc565b60606110288261122d565b506000828152600660205260408120805461104290612240565b80601f016020809104026020016040519081016040528092919081815260200182805461106e90612240565b80156110bb5780601f10611090576101008083540402835291602001916110bb565b820191906000526020600020905b81548152906001019060200180831161109e57829003601f168201915b5050505050905060006110d960408051602081019091526000815290565b905080516000036110eb575092915050565b81511561111d578082604051602001611105929190612303565b60405160208183030381529060405292505050919050565b611126846118e5565b949350505050565b6001600160a01b03918216600090815260056020908152604080832093909416825291909152205460ff1690565b611164611634565b6001600160a01b03811661118e57604051631e4fbdf760e01b815260006004820152602401610720565b61119781611661565b50565b6111a2611634565b600a8190556040518181527f54194cd3342ed770a8b1ef220e63aa9bab5d883a988538745c01f4679c5819e39060200160405180910390a150565b60006001600160e01b031982166380ac58cd60e01b148061120e57506001600160e01b03198216635b5e139f60e01b145b8061062a57506301ffc9a760e01b6001600160e01b031983161461062a565b6000818152600260205260408120546001600160a01b03168061062a57604051637e27328960e01b815260048101849052602401610720565b6107a5838383600161195a565b6000828152600260205260408120546001600160a01b03908116908316156112a0576112a0818486611a60565b6001600160a01b038116156112de576112bd60008560008061195a565b6001600160a01b038116600090815260036020526040902080546000190190555b6001600160a01b0385161561130d576001600160a01b0385166000908152600360205260409020805460010190555b60008481526002602052604080822080546001600160a01b0319166001600160a01b0389811691821790925591518793918516917fddf252ad1be2c89b69c2b068fc378daa952ba7f163c4a11628f55a4df523b3ef91a4949350505050565b6001600160a01b03821661139657604051633250574960e11b815260006004820152602401610720565b60006113a483836000611273565b90506001600160a01b0381166113d057604051637e27328960e01b815260048101839052602401610720565b836001600160a01b0316816001600160a01b031614610784576040516364283d7b60e01b81526001600160a01b0380861660048301526024820184905282166044820152606401610720565b600061142b6000836000611273565b90506001600160a01b0381166106f657604051637e27328960e01b815260048101839052602401610720565b6000828152600c60209081526040808320548352600b825291829020825180840190935280546001600160a01b0316808452600190910154918301919091526114e25760405162461bcd60e51b815260206004820152601860248201527f4172746973742061646472657373206e6f7420666f756e6400000000000000006044820152606401610720565b60006064600a54846114f49190612332565b6114fe91906122bf565b9050600060648360200151856115149190612332565b61151e91906122bf565b905060008161152d8487612349565b6115379190612349565b6009546040519192506001600160a01b03169084156108fc029085906000818181858888f19350505050158015611572573d6000803e3d6000fd5b5083516040516001600160a01b039091169083156108fc029084906000818181858888f193505050501580156115ac573d6000803e3d6000fd5b50604051339082156108fc029083906000818181858888f193505050501580156115da573d6000803e3d6000fd5b50835160408051878152602081018590529081018590526001600160a01b039091169087907fe44ae502ed6cbf6b108ecff954912b095c3163d93c2e68f3f550dba23b5e1f609060600160405180910390a3505050505050565b6007546001600160a01b03163314610b805760405163118cdaa760e01b8152336004820152602401610720565b600780546001600160a01b038381166001600160a01b0319831681179093556040519116919082907f8be0079c531659141344cd1fd0a4f28419497f9722a3daafe3b4186f6b6457e090600090a35050565b6001600160a01b0382166116e557604051630b61174360e31b81526001600160a01b0383166004820152602401610720565b6001600160a01b03838116600081815260056020908152604080832094871680845294825291829020805460ff191686151590811790915591519182527f17307eab39ab6107e8899845ad3d59bd9653f200f220920489ca2b5937696c31910160405180910390a3505050565b6106f6828260405180602001604052806000815250611ac4565b600082815260066020526040902061178482826123a3565b506040518281527ff8e1a15aba9398e019f0b49df1a4fde98ee17ae345cb5f6b5e2c27f5033e8ce79060200160405180910390a15050565b6001600160a01b0383163b1561078457604051630a85bd0160e11b81526001600160a01b0384169063150b7a02906117fe903390889087908790600401612462565b6020604051808303816000875af1925050508015611839575060408051601f3d908101601f1916820190925261183691810190612495565b60015b6118a2573d808015611867576040519150601f19603f3d011682016040523d82523d6000602084013e61186c565b606091505b50805160000361189a57604051633250574960e11b81526001600160a01b0385166004820152602401610720565b805181602001fd5b6001600160e01b03198116630a85bd0160e11b146118de57604051633250574960e11b81526001600160a01b0385166004820152602401610720565b5050505050565b60606118f08261122d565b50600061190860408051602081019091526000815290565b905060008151116119285760405180602001604052806000815250611953565b8061193284611adb565b604051602001611943929190612303565b6040516020818303038152906040525b9392505050565b808061196e57506001600160a01b03821615155b15611a3057600061197e8461122d565b90506001600160a01b038316158015906119aa5750826001600160a01b0316816001600160a01b031614155b80156119bd57506119bb818461112e565b155b156119e65760405163a9fbf51f60e01b81526001600160a01b0384166004820152602401610720565b8115611a2e5783856001600160a01b0316826001600160a01b03167f8c5be1e5ebec7d5bd14f71427d1e84f3dd0314c0f7b2291e5b200ac8c7c3b92560405160405180910390a45b505b5050600090815260046020526040902080546001600160a01b0319166001600160a01b0392909216919091179055565b611a6b838383611b6e565b6107a5576001600160a01b038316611a9957604051637e27328960e01b815260048101829052602401610720565b60405163177e802f60e01b81526001600160a01b038316600482015260248101829052604401610720565b611ace8383611bd1565b6107a560008484846117bc565b60606000611ae883611c36565b600101905060008167ffffffffffffffff811115611b0857611b08611e40565b6040519080825280601f01601f191660200182016040528015611b32576020820181803683370190505b5090508181016020015b600019016f181899199a1a9b1b9c1cb0b131b232b360811b600a86061a8153600a8504945084611b3c57509392505050565b60006001600160a01b038316158015906111265750826001600160a01b0316846001600160a01b03161480611ba85750611ba8848461112e565b806111265750506000908152600460205260409020546001600160a01b03908116911614919050565b6001600160a01b038216611bfb57604051633250574960e11b815260006004820152602401610720565b6000611c0983836000611273565b90506001600160a01b038116156107a5576040516339e3563760e11b815260006004820152602401610720565b60008072184f03e93ff9f4daa797ed6e38ed64bf6a1f0160401b8310611c755772184f03e93ff9f4daa797ed6e38ed64bf6a1f0160401b830492506040015b6d04ee2d6d415b85acef81000000008310611ca1576d04ee2d6d415b85acef8100000000830492506020015b662386f26fc100008310611cbf57662386f26fc10000830492506010015b6305f5e1008310611cd7576305f5e100830492506008015b6127108310611ceb57612710830492506004015b60648310611cfd576064830492506002015b600a831061062a5760010192915050565b6001600160e01b03198116811461119757600080fd5b600060208284031215611d3657600080fd5b813561195381611d0e565b60005b83811015611d5c578181015183820152602001611d44565b50506000910152565b60008151808452611d7d816020860160208601611d41565b601f01601f19169290920160200192915050565b6020815260006119536020830184611d65565b600060208284031215611db657600080fd5b5035919050565b80356001600160a01b0381168114611dd457600080fd5b919050565b60008060408385031215611dec57600080fd5b611df583611dbd565b946020939093013593505050565b600080600060608486031215611e1857600080fd5b611e2184611dbd565b9250611e2f60208501611dbd565b929592945050506040919091013590565b634e487b7160e01b600052604160045260246000fd5b604051601f8201601f1916810167ffffffffffffffff81118282101715611e7f57611e7f611e40565b604052919050565b600067ffffffffffffffff821115611ea157611ea1611e40565b5060051b60200190565b600060208284031215611ebd57600080fd5b813567ffffffffffffffff811115611ed457600080fd5b8201601f81018413611ee557600080fd5b8035611ef8611ef382611e87565b611e56565b8082825260208201915060208360051b850101925086831115611f1a57600080fd5b6020840193505b82841015611f3c578335825260209384019390910190611f21565b9695505050505050565b60008060408385031215611f5957600080fd5b82359150611f6960208401611dbd565b90509250929050565b600060208284031215611f8457600080fd5b61195382611dbd565b60008060408385031215611fa057600080fd5b611fa983611dbd565b915060208301358015158114611fbe57600080fd5b809150509250929050565b60008067ffffffffffffffff841115611fe457611fe4611e40565b50601f8301601f1916602001611ff981611e56565b91505082815283838301111561200e57600080fd5b828260208301376000602084830101529392505050565b600082601f83011261203657600080fd5b61195383833560208501611fc9565b60008060006060848603121561205a57600080fd5b833567ffffffffffffffff81111561207157600080fd5b61207d86828701612025565b935050611e2f60208501611dbd565b6000806000606084860312156120a157600080fd5b83359250602084013567ffffffffffffffff8111156120bf57600080fd5b8401601f810186136120d057600080fd5b80356120de611ef382611e87565b8082825260208201915060208360051b85010192508883111561210057600080fd5b602084015b8381101561214257803567ffffffffffffffff81111561212457600080fd5b6121338b602083890101612025565b84525060209283019201612105565b50959895975050505060409390930135925050565b602080825282518282018190526000918401906040840190835b8181101561218f578351835260209384019390920191600101612171565b509095945050505050565b600080600080608085870312156121b057600080fd5b6121b985611dbd565b93506121c760208601611dbd565b925060408501359150606085013567ffffffffffffffff8111156121ea57600080fd5b8501601f810187136121fb57600080fd5b61220a87823560208401611fc9565b91505092959194509250565b6000806040838503121561222957600080fd5b61223283611dbd565b9150611f6960208401611dbd565b600181811c9082168061225457607f821691505b60208210810361227457634e487b7160e01b600052602260045260246000fd5b50919050565b634e487b7160e01b600052603260045260246000fd5b634e487b7160e01b600052601160045260246000fd5b6000600182016122b8576122b8612290565b5060010190565b6000826122dc57634e487b7160e01b600052601260045260246000fd5b500490565b6040815260006122f46040830185611d65565b90508260208301529392505050565b60008351612315818460208801611d41565b835190830190612329818360208801611d41565b01949350505050565b808202811582820484141761062a5761062a612290565b8181038181111561062a5761062a612290565b601f8211156107a557806000526020600020601f840160051c810160208510156123835750805b601f840160051c820191505b818110156118de576000815560010161238f565b815167ffffffffffffffff8111156123bd576123bd611e40565b6123d1816123cb8454612240565b8461235c565b6020601f82116001811461240557600083156123ed5750848201515b600019600385901b1c1916600184901b1784556118de565b600084815260208120601f198516915b828110156124355787850151825560209485019460019092019101612415565b50848210156124535786840151600019600387901b60f8161c191681555b50505050600190811b01905550565b6001600160a01b0385811682528416602082015260408101839052608060608201819052600090611f3c90830184611d65565b6000602082840312156124a757600080fd5b815161195381611d0e56fef6ff2ad7fc16bda2a7d32462729431bce3ebe9b75cc7c9b35a0adfbf7e7bb9e6a26469706673582212204797146bb20a0e2047fe18e0b7ccf9acb2aee46a42dd8fe36db82c00e3095a0a64736f6c634300081a0033","linkReferences":{}},"methodIdentifiers":{"TOTAL_FRACTIONS()":"256f4f9b","approve(address,uint256)":"095ea7b3","balanceOf(address)":"70a08231","claimOriginal(uint256[])":"4ca8e07c","fractions(uint256)":"bdcfa6af","fractionsMinted(uint256)":"192fc2f5","getApproved(uint256)":"081812fc","intermediaryWallet()":"24b0ce98","isApprovedForAll(address,address)":"e985e9c5","mintFractions(uint256,string[],uint256)":"aa5a75f5","mintOriginal(string,address,uint256)":"a8db60a8","name()":"06fdde03","originalToArtist(uint256)":"6221120d","originalToFractions(uint256)":"fcc3f6b7","owner()":"8da5cb5b","ownerOf(uint256)":"6352211e","platformCommissionPercentage()":"92303e06","renounceOwnership()":"715018a6","safeTransferFrom(address,address,uint256)":"42842e0e","safeTransferFrom(address,address,uint256,bytes)":"b88d4fde","setApprovalForAll(address,bool)":"a22cb465","setPlatformCommissionPercentage(uint256)":"f8ed48ed","supportsInterface(bytes4)":"01ffc9a7","symbol()":"95d89b41","tokenCounter()":"d082e381","tokenURI(uint256)":"c87b56dd","transferFraction(uint256,address)":"639956e5","transferFrom(address,address,uint256)":"23b872dd","transferOwnership(address)":"f2fde38b"},"id":36}