{"abi":[{"type":"constructor","inputs":[{"name":"_intermediaryWallet","type":"address","internalType":"address"},{"name":"initialOwner","type":"address","internalType":"address"}],"stateMutability":"nonpayable"},{"type":"function","name":"TOTAL_FRACTIONS","inputs":[],"outputs":[{"name":"","type":"uint256","internalType":"uint256"}],"stateMutability":"view"},{"type":"function","name":"approve","inputs":[{"name":"to","type":"address","internalType":"address"},{"name":"tokenId","type":"uint256","internalType":"uint256"}],"outputs":[],"stateMutability":"nonpayable"},{"type":"function","name":"balanceOf","inputs":[{"name":"owner","type":"address","internalType":"address"}],"outputs":[{"name":"","type":"uint256","internalType":"uint256"}],"stateMutability":"view"},{"type":"function","name":"claimOriginal","inputs":[{"name":"fractionIds","type":"uint256[]","internalType":"uint256[]"}],"outputs":[],"stateMutability":"nonpayable"},{"type":"function","name":"createCollectible","inputs":[{"name":"originalTokenURI","type":"string","internalType":"string"},{"name":"fractionTokenURIs","type":"string[]","internalType":"string[]"}],"outputs":[{"name":"","type":"uint256[]","internalType":"uint256[]"}],"stateMutability":"nonpayable"},{"type":"function","name":"fractionsMinted","inputs":[{"name":"","type":"uint256","internalType":"uint256"}],"outputs":[{"name":"","type":"bool","internalType":"bool"}],"stateMutability":"view"},{"type":"function","name":"getApproved","inputs":[{"name":"tokenId","type":"uint256","internalType":"uint256"}],"outputs":[{"name":"","type":"address","internalType":"address"}],"stateMutability":"view"},{"type":"function","name":"intermediaryWallet","inputs":[],"outputs":[{"name":"","type":"address","internalType":"address"}],"stateMutability":"view"},{"type":"function","name":"isApprovedForAll","inputs":[{"name":"owner","type":"address","internalType":"address"},{"name":"operator","type":"address","internalType":"address"}],"outputs":[{"name":"","type":"bool","internalType":"bool"}],"stateMutability":"view"},{"type":"function","name":"name","inputs":[],"outputs":[{"name":"","type":"string","internalType":"string"}],"stateMutability":"view"},{"type":"function","name":"originalToFractions","inputs":[{"name":"","type":"uint256","internalType":"uint256"}],"outputs":[{"name":"","type":"uint256","internalType":"uint256"}],"stateMutability":"view"},{"type":"function","name":"owner","inputs":[],"outputs":[{"name":"","type":"address","internalType":"address"}],"stateMutability":"view"},{"type":"function","name":"ownerOf","inputs":[{"name":"tokenId","type":"uint256","internalType":"uint256"}],"outputs":[{"name":"","type":"address","internalType":"address"}],"stateMutability":"view"},{"type":"function","name":"renounceOwnership","inputs":[],"outputs":[],"stateMutability":"nonpayable"},{"type":"function","name":"safeTransferFrom","inputs":[{"name":"from","type":"address","internalType":"address"},{"name":"to","type":"address","internalType":"address"},{"name":"tokenId","type":"uint256","internalType":"uint256"}],"outputs":[],"stateMutability":"nonpayable"},{"type":"function","name":"safeTransferFrom","inputs":[{"name":"from","type":"address","internalType":"address"},{"name":"to","type":"address","internalType":"address"},{"name":"tokenId","type":"uint256","internalType":"uint256"},{"name":"data","type":"bytes","internalType":"bytes"}],"outputs":[],"stateMutability":"nonpayable"},{"type":"function","name":"setApprovalForAll","inputs":[{"name":"operator","type":"address","internalType":"address"},{"name":"approved","type":"bool","internalType":"bool"}],"outputs":[],"stateMutability":"nonpayable"},{"type":"function","name":"supportsInterface","inputs":[{"name":"interfaceId","type":"bytes4","internalType":"bytes4"}],"outputs":[{"name":"","type":"bool","internalType":"bool"}],"stateMutability":"view"},{"type":"function","name":"symbol","inputs":[],"outputs":[{"name":"","type":"string","internalType":"string"}],"stateMutability":"view"},{"type":"function","name":"tokenCounter","inputs":[],"outputs":[{"name":"","type":"uint256","internalType":"uint256"}],"stateMutability":"view"},{"type":"function","name":"tokenURI","inputs":[{"name":"tokenId","type":"uint256","internalType":"uint256"}],"outputs":[{"name":"","type":"string","internalType":"string"}],"stateMutability":"view"},{"type":"function","name":"transferFrom","inputs":[{"name":"from","type":"address","internalType":"address"},{"name":"to","type":"address","internalType":"address"},{"name":"tokenId","type":"uint256","internalType":"uint256"}],"outputs":[],"stateMutability":"nonpayable"},{"type":"function","name":"transferOwnership","inputs":[{"name":"newOwner","type":"address","internalType":"address"}],"outputs":[],"stateMutability":"nonpayable"},{"type":"event","name":"Approval","inputs":[{"name":"owner","type":"address","indexed":true,"internalType":"address"},{"name":"approved","type":"address","indexed":true,"internalType":"address"},{"name":"tokenId","type":"uint256","indexed":true,"internalType":"uint256"}],"anonymous":false},{"type":"event","name":"ApprovalForAll","inputs":[{"name":"owner","type":"address","indexed":true,"internalType":"address"},{"name":"operator","type":"address","indexed":true,"internalType":"address"},{"name":"approved","type":"bool","indexed":false,"internalType":"bool"}],"anonymous":false},{"type":"event","name":"BatchMetadataUpdate","inputs":[{"name":"_fromTokenId","type":"uint256","indexed":false,"internalType":"uint256"},{"name":"_toTokenId","type":"uint256","indexed":false,"internalType":"uint256"}],"anonymous":false},{"type":"event","name":"MetadataUpdate","inputs":[{"name":"_tokenId","type":"uint256","indexed":false,"internalType":"uint256"}],"anonymous":false},{"type":"event","name":"OwnershipTransferred","inputs":[{"name":"previousOwner","type":"address","indexed":true,"internalType":"address"},{"name":"newOwner","type":"address","indexed":true,"internalType":"address"}],"anonymous":false},{"type":"event","name":"Transfer","inputs":[{"name":"from","type":"address","indexed":true,"internalType":"address"},{"name":"to","type":"address","indexed":true,"internalType":"address"},{"name":"tokenId","type":"uint256","indexed":true,"internalType":"uint256"}],"anonymous":false},{"type":"error","name":"ERC721IncorrectOwner","inputs":[{"name":"sender","type":"address","internalType":"address"},{"name":"tokenId","type":"uint256","internalType":"uint256"},{"name":"owner","type":"address","internalType":"address"}]},{"type":"error","name":"ERC721InsufficientApproval","inputs":[{"name":"operator","type":"address","internalType":"address"},{"name":"tokenId","type":"uint256","internalType":"uint256"}]},{"type":"error","name":"ERC721InvalidApprover","inputs":[{"name":"approver","type":"address","internalType":"address"}]},{"type":"error","name":"ERC721InvalidOperator","inputs":[{"name":"operator","type":"address","internalType":"address"}]},{"type":"error","name":"ERC721InvalidOwner","inputs":[{"name":"owner","type":"address","internalType":"address"}]},{"type":"error","name":"ERC721InvalidReceiver","inputs":[{"name":"receiver","type":"address","internalType":"address"}]},{"type":"error","name":"ERC721InvalidSender","inputs":[{"name":"sender","type":"address","internalType":"address"}]},{"type":"error","name":"ERC721NonexistentToken","inputs":[{"name":"tokenId","type":"uint256","internalType":"uint256"}]},{"type":"error","name":"OwnableInvalidOwner","inputs":[{"name":"owner","type":"address","internalType":"address"}]},{"type":"error","name":"OwnableUnauthorizedAccount","inputs":[{"name":"account","type":"address","internalType":"address"}]}],"bytecode":{"object":"0x608060405234801561001057600080fd5b50604051611e50380380611e5083398101604081905261002f91610161565b806040518060400160405280600a815260200169119c9858dd1b1cd3919560b21b8152506040518060400160405280600581526020016411949050d560da1b81525081600090816100809190610233565b50600161008d8282610233565b5050506001600160a01b0381166100be57604051631e4fbdf760e01b81526000600482015260240160405180910390fd5b6100c7816100f3565b50506000600855600b80546001600160a01b0319166001600160a01b03929092169190911790556102f1565b600780546001600160a01b038381166001600160a01b0319831681179093556040519116919082907f8be0079c531659141344cd1fd0a4f28419497f9722a3daafe3b4186f6b6457e090600090a35050565b80516001600160a01b038116811461015c57600080fd5b919050565b6000806040838503121561017457600080fd5b61017d83610145565b915061018b60208401610145565b90509250929050565b634e487b7160e01b600052604160045260246000fd5b600181811c908216806101be57607f821691505b6020821081036101de57634e487b7160e01b600052602260045260246000fd5b50919050565b601f82111561022e57806000526020600020601f840160051c8101602085101561020b5750805b601f840160051c820191505b8181101561022b5760008155600101610217565b50505b505050565b81516001600160401b0381111561024c5761024c610194565b6102608161025a84546101aa565b846101e4565b6020601f821160018114610294576000831561027c5750848201515b600019600385901b1c1916600184901b17845561022b565b600084815260208120601f198516915b828110156102c457878501518255602094850194600190920191016102a4565b50848210156102e25786840151600019600387901b60f8161c191681555b50505050600190811b01905550565b611b50806103006000396000f3fe608060405234801561001057600080fd5b506004361061014d5760003560e01c806370a08231116100c3578063c87b56dd1161007c578063c87b56dd146102c1578063d082e381146102d4578063d82bc5d9146102dd578063e985e9c5146102fd578063f2fde38b14610310578063fcc3f6b71461032357600080fd5b806370a0823114610267578063715018a61461027a5780638da5cb5b1461028257806395d89b4114610293578063a22cb4651461029b578063b88d4fde146102ae57600080fd5b806323b872dd1161011557806323b872dd146101f257806324b0ce9814610205578063256f4f9b1461021857806342842e0e1461022e5780634ca8e07c146102415780636352211e1461025457600080fd5b806301ffc9a71461015257806306fdde031461017a578063081812fc1461018f578063095ea7b3146101ba578063192fc2f5146101cf575b600080fd5b610165610160366004611437565b610343565b60405190151581526020015b60405180910390f35b61018261036e565b60405161017191906114a4565b6101a261019d3660046114b7565b610400565b6040516001600160a01b039091168152602001610171565b6101cd6101c83660046114ec565b610429565b005b6101656101dd3660046114b7565b600a6020526000908152604090205460ff1681565b6101cd610200366004611516565b610438565b600b546101a2906001600160a01b031681565b610220600981565b604051908152602001610171565b6101cd61023c366004611516565b6104c8565b6101cd61024f3660046115be565b6104e8565b6101a26102623660046114b7565b6106f1565b610220610275366004611659565b6106fc565b6101cd610744565b6007546001600160a01b03166101a2565b610182610758565b6101cd6102a9366004611674565b610767565b6101cd6102bc36600461170c565b610772565b6101826102cf3660046114b7565b610789565b61022060085481565b6102f06102eb3660046117a8565b61089a565b604051610171919061188d565b61016561030b3660046118d0565b610a61565b6101cd61031e366004611659565b610a8f565b6102206103313660046114b7565b60096020526000908152604090205481565b60006001600160e01b03198216632483248360e11b1480610368575061036882610acd565b92915050565b60606000805461037d90611903565b80601f01602080910402602001604051908101604052809291908181526020018280546103a990611903565b80156103f65780601f106103cb576101008083540402835291602001916103f6565b820191906000526020600020905b8154815290600101906020018083116103d957829003601f168201915b5050505050905090565b600061040b82610b1d565b506000828152600460205260409020546001600160a01b0316610368565b610434828233610b56565b5050565b6001600160a01b03821661046757604051633250574960e11b8152600060048201526024015b60405180910390fd5b6000610474838333610b63565b9050836001600160a01b0316816001600160a01b0316146104c2576040516364283d7b60e01b81526001600160a01b038086166004830152602482018490528216604482015260640161045e565b50505050565b6104e383838360405180602001604052806000815250610772565b505050565b60098151146105395760405162461bcd60e51b815260206004820152601b60248201527f4d7573742070726f766964652039206672616374696f6e204944730000000000604482015260640161045e565b600060096000836000815181106105525761055261193d565b6020026020010151815260200190815260200160002054905060005b600981101561068d57336001600160a01b03166105a38483815181106105965761059661193d565b60200260200101516106f1565b6001600160a01b0316146105f95760405162461bcd60e51b815260206004820152601c60248201527f596f7520646f206e6f74206f776e20616c6c206672616374696f6e7300000000604482015260640161045e565b81600960008584815181106106105761061061193d565b6020026020010151815260200190815260200160002054146106855760405162461bcd60e51b815260206004820152602860248201527f4672616374696f6e7320646f206e6f74206d61746368207468652073616d65206044820152671bdc9a59da5b985b60c21b606482015260840161045e565b60010161056e565b506106a161069a826106f1565b3383610c5c565b60005b60098110156106d7576106cf8382815181106106c2576106c261193d565b6020026020010151610d0c565b6001016106a4565b506000908152600a60205260409020805460ff1916905550565b600061036882610b1d565b60006001600160a01b038216610728576040516322718ad960e21b81526000600482015260240161045e565b506001600160a01b031660009081526003602052604090205490565b61074c610d47565b6107566000610d74565b565b60606001805461037d90611903565b610434338383610dc6565b61077d848484610438565b6104c284848484610e65565b606061079482610b1d565b50600082815260066020526040812080546107ae90611903565b80601f01602080910402602001604051908101604052809291908181526020018280546107da90611903565b80156108275780601f106107fc57610100808354040283529160200191610827565b820191906000526020600020905b81548152906001019060200180831161080a57829003601f168201915b50505050509050600061084560408051602081019091526000815290565b90508051600003610857575092915050565b815115610889578082604051602001610871929190611953565b60405160208183030381529060405292505050919050565b61089284610f8e565b949350505050565b60606108a4610d47565b60098251146108f55760405162461bcd60e51b815260206004820152601d60248201527f5468657265206d7573742062652039206672616374696f6e2055524973000000604482015260640161045e565b600061090360096001611998565b67ffffffffffffffff81111561091b5761091b611553565b604051908082528060200260200182016040528015610944578160200160208202803683370190505b50600854600b5491925090610962906001600160a01b031682611003565b61096c818661101d565b80826000815181106109805761098061193d565b60209081029190910101526008805490600061099b836119ab565b919050555060005b6009811015610a5757600854600b546109c5906001600160a01b031682611003565b6109e8818784815181106109db576109db61193d565b602002602001015161101d565b80846109f5846001611998565b81518110610a0557610a0561193d565b6020908102919091018101919091526000828152600982526040808220869055858252600a909252908120805460ff191660011790556008805491610a49836119ab565b9091555050506001016109a3565b5090949350505050565b6001600160a01b03918216600090815260056020908152604080832093909416825291909152205460ff1690565b610a97610d47565b6001600160a01b038116610ac157604051631e4fbdf760e01b81526000600482015260240161045e565b610aca81610d74565b50565b60006001600160e01b031982166380ac58cd60e01b1480610afe57506001600160e01b03198216635b5e139f60e01b145b8061036857506301ffc9a760e01b6001600160e01b0319831614610368565b6000818152600260205260408120546001600160a01b03168061036857604051637e27328960e01b81526004810184905260240161045e565b6104e3838383600161106d565b6000828152600260205260408120546001600160a01b0390811690831615610b9057610b90818486611173565b6001600160a01b03811615610bce57610bad60008560008061106d565b6001600160a01b038116600090815260036020526040902080546000190190555b6001600160a01b03851615610bfd576001600160a01b0385166000908152600360205260409020805460010190555b60008481526002602052604080822080546001600160a01b0319166001600160a01b0389811691821790925591518793918516917fddf252ad1be2c89b69c2b068fc378daa952ba7f163c4a11628f55a4df523b3ef91a4949350505050565b6001600160a01b038216610c8657604051633250574960e11b81526000600482015260240161045e565b6000610c9483836000610b63565b90506001600160a01b038116610cc057604051637e27328960e01b81526004810183905260240161045e565b836001600160a01b0316816001600160a01b0316146104c2576040516364283d7b60e01b81526001600160a01b038086166004830152602482018490528216604482015260640161045e565b6000610d1b6000836000610b63565b90506001600160a01b03811661043457604051637e27328960e01b81526004810183905260240161045e565b6007546001600160a01b031633146107565760405163118cdaa760e01b815233600482015260240161045e565b600780546001600160a01b038381166001600160a01b0319831681179093556040519116919082907f8be0079c531659141344cd1fd0a4f28419497f9722a3daafe3b4186f6b6457e090600090a35050565b6001600160a01b038216610df857604051630b61174360e31b81526001600160a01b038316600482015260240161045e565b6001600160a01b03838116600081815260056020908152604080832094871680845294825291829020805460ff191686151590811790915591519182527f17307eab39ab6107e8899845ad3d59bd9653f200f220920489ca2b5937696c31910160405180910390a3505050565b6001600160a01b0383163b156104c257604051630a85bd0160e11b81526001600160a01b0384169063150b7a0290610ea79033908890879087906004016119c4565b6020604051808303816000875af1925050508015610ee2575060408051601f3d908101601f19168201909252610edf918101906119f7565b60015b610f4b573d808015610f10576040519150601f19603f3d011682016040523d82523d6000602084013e610f15565b606091505b508051600003610f4357604051633250574960e11b81526001600160a01b038516600482015260240161045e565b805181602001fd5b6001600160e01b03198116630a85bd0160e11b14610f8757604051633250574960e11b81526001600160a01b038516600482015260240161045e565b5050505050565b6060610f9982610b1d565b506000610fb160408051602081019091526000815290565b90506000815111610fd15760405180602001604052806000815250610ffc565b80610fdb846111d7565b604051602001610fec929190611953565b6040516020818303038152906040525b9392505050565b61043482826040518060200160405280600081525061126a565b60008281526006602052604090206110358282611a5b565b506040518281527ff8e1a15aba9398e019f0b49df1a4fde98ee17ae345cb5f6b5e2c27f5033e8ce79060200160405180910390a15050565b808061108157506001600160a01b03821615155b1561114357600061109184610b1d565b90506001600160a01b038316158015906110bd5750826001600160a01b0316816001600160a01b031614155b80156110d057506110ce8184610a61565b155b156110f95760405163a9fbf51f60e01b81526001600160a01b038416600482015260240161045e565b81156111415783856001600160a01b0316826001600160a01b03167f8c5be1e5ebec7d5bd14f71427d1e84f3dd0314c0f7b2291e5b200ac8c7c3b92560405160405180910390a45b505b5050600090815260046020526040902080546001600160a01b0319166001600160a01b0392909216919091179055565b61117e838383611281565b6104e3576001600160a01b0383166111ac57604051637e27328960e01b81526004810182905260240161045e565b60405163177e802f60e01b81526001600160a01b03831660048201526024810182905260440161045e565b606060006111e4836112e4565b600101905060008167ffffffffffffffff81111561120457611204611553565b6040519080825280601f01601f19166020018201604052801561122e576020820181803683370190505b5090508181016020015b600019016f181899199a1a9b1b9c1cb0b131b232b360811b600a86061a8153600a850494508461123857509392505050565b61127483836113bc565b6104e36000848484610e65565b60006001600160a01b038316158015906108925750826001600160a01b0316846001600160a01b031614806112bb57506112bb8484610a61565b806108925750506000908152600460205260409020546001600160a01b03908116911614919050565b60008072184f03e93ff9f4daa797ed6e38ed64bf6a1f0160401b83106113235772184f03e93ff9f4daa797ed6e38ed64bf6a1f0160401b830492506040015b6d04ee2d6d415b85acef8100000000831061134f576d04ee2d6d415b85acef8100000000830492506020015b662386f26fc10000831061136d57662386f26fc10000830492506010015b6305f5e1008310611385576305f5e100830492506008015b612710831061139957612710830492506004015b606483106113ab576064830492506002015b600a83106103685760010192915050565b6001600160a01b0382166113e657604051633250574960e11b81526000600482015260240161045e565b60006113f483836000610b63565b90506001600160a01b038116156104e3576040516339e3563760e11b81526000600482015260240161045e565b6001600160e01b031981168114610aca57600080fd5b60006020828403121561144957600080fd5b8135610ffc81611421565b60005b8381101561146f578181015183820152602001611457565b50506000910152565b60008151808452611490816020860160208601611454565b601f01601f19169290920160200192915050565b602081526000610ffc6020830184611478565b6000602082840312156114c957600080fd5b5035919050565b80356001600160a01b03811681146114e757600080fd5b919050565b600080604083850312156114ff57600080fd5b611508836114d0565b946020939093013593505050565b60008060006060848603121561152b57600080fd5b611534846114d0565b9250611542602085016114d0565b929592945050506040919091013590565b634e487b7160e01b600052604160045260246000fd5b604051601f8201601f1916810167ffffffffffffffff8111828210171561159257611592611553565b604052919050565b600067ffffffffffffffff8211156115b4576115b4611553565b5060051b60200190565b6000602082840312156115d057600080fd5b813567ffffffffffffffff8111156115e757600080fd5b8201601f810184136115f857600080fd5b803561160b6116068261159a565b611569565b8082825260208201915060208360051b85010192508683111561162d57600080fd5b6020840193505b8284101561164f578335825260209384019390910190611634565b9695505050505050565b60006020828403121561166b57600080fd5b610ffc826114d0565b6000806040838503121561168757600080fd5b611690836114d0565b9150602083013580151581146116a557600080fd5b809150509250929050565b60008067ffffffffffffffff8411156116cb576116cb611553565b50601f8301601f19166020016116e081611569565b9150508281528383830111156116f557600080fd5b828260208301376000602084830101529392505050565b6000806000806080858703121561172257600080fd5b61172b856114d0565b9350611739602086016114d0565b925060408501359150606085013567ffffffffffffffff81111561175c57600080fd5b8501601f8101871361176d57600080fd5b61177c878235602084016116b0565b91505092959194509250565b600082601f83011261179957600080fd5b610ffc838335602085016116b0565b600080604083850312156117bb57600080fd5b823567ffffffffffffffff8111156117d257600080fd5b6117de85828601611788565b925050602083013567ffffffffffffffff8111156117fb57600080fd5b8301601f8101851361180c57600080fd5b803561181a6116068261159a565b8082825260208201915060208360051b85010192508783111561183c57600080fd5b602084015b8381101561187e57803567ffffffffffffffff81111561186057600080fd5b61186f8a602083890101611788565b84525060209283019201611841565b50809450505050509250929050565b602080825282518282018190526000918401906040840190835b818110156118c55783518352602093840193909201916001016118a7565b509095945050505050565b600080604083850312156118e357600080fd5b6118ec836114d0565b91506118fa602084016114d0565b90509250929050565b600181811c9082168061191757607f821691505b60208210810361193757634e487b7160e01b600052602260045260246000fd5b50919050565b634e487b7160e01b600052603260045260246000fd5b60008351611965818460208801611454565b835190830190611979818360208801611454565b01949350505050565b634e487b7160e01b600052601160045260246000fd5b8082018082111561036857610368611982565b6000600182016119bd576119bd611982565b5060010190565b6001600160a01b038581168252841660208201526040810183905260806060820181905260009061164f90830184611478565b600060208284031215611a0957600080fd5b8151610ffc81611421565b601f8211156104e357806000526020600020601f840160051c81016020851015611a3b5750805b601f840160051c820191505b81811015610f875760008155600101611a47565b815167ffffffffffffffff811115611a7557611a75611553565b611a8981611a838454611903565b84611a14565b6020601f821160018114611abd5760008315611aa55750848201515b600019600385901b1c1916600184901b178455610f87565b600084815260208120601f198516915b82811015611aed5787850151825560209485019460019092019101611acd565b5084821015611b0b5786840151600019600387901b60f8161c191681555b50505050600190811b0190555056fea2646970667358221220c5ee1f1d8608d9b82f62b3075a098762635f57b2406376284318fc81e51a16fd64736f6c634300081a0033","linkReferences":{}},"methodIdentifiers":{"TOTAL_FRACTIONS()":"256f4f9b","approve(address,uint256)":"095ea7b3","balanceOf(address)":"70a08231","claimOriginal(uint256[])":"4ca8e07c","createCollectible(string,string[])":"d82bc5d9","fractionsMinted(uint256)":"192fc2f5","getApproved(uint256)":"081812fc","intermediaryWallet()":"24b0ce98","isApprovedForAll(address,address)":"e985e9c5","name()":"06fdde03","originalToFractions(uint256)":"fcc3f6b7","owner()":"8da5cb5b","ownerOf(uint256)":"6352211e","renounceOwnership()":"715018a6","safeTransferFrom(address,address,uint256)":"42842e0e","safeTransferFrom(address,address,uint256,bytes)":"b88d4fde","setApprovalForAll(address,bool)":"a22cb465","supportsInterface(bytes4)":"01ffc9a7","symbol()":"95d89b41","tokenCounter()":"d082e381","tokenURI(uint256)":"c87b56dd","transferFrom(address,address,uint256)":"23b872dd","transferOwnership(address)":"f2fde38b"},"id":36}